{
  "contractName": "EcommerceStore",
  "abi": [
    {
      "constant": true,
      "inputs": [],
      "name": "productIndex",
      "outputs": [
        {
          "name": "",
          "type": "uint256"
        }
      ],
      "payable": false,
      "stateMutability": "view",
      "type": "function"
    },
    {
      "inputs": [],
      "payable": false,
      "stateMutability": "nonpayable",
      "type": "constructor"
    }
  ],
  "bytecode": "0x60606040523415600e57600080fd5b60008081905550609c806100236000396000f300606060405260043610603f576000357c0100000000000000000000000000000000000000000000000000000000900463ffffffff168063c897d5a6146044575b600080fd5b3415604e57600080fd5b6054606a565b6040518082815260200191505060405180910390f35b600054815600a165627a7a723058204012cc83646e751a2aa30b1d5586fb4639e2283eaa1e26ff851cd4a4c75f37350029",
  "source": "pragma solidity ^0.4.13;\n\ncontract EcommerceStore {\n    enum ProductStatus { Open, Sold, UnSold}\n    enum ProductCondition { New, Used}\n\n    uint public productIndex;\n\n    mapping (address => mapping(uint => Product)) stores;\n    mapping (uint => address) productIdInStore;\n\n    struct Product {\n        uint id;\n        string name;\n        string category;\n        string imageLink;\n        string descLink;\n        uint auctionStartTime;\n        uint auctionEndTime;\n        uint startPrice;\n        address highestBidder;\n        uint highestBid;\n        uint secondHighestBid;\n        uint totalBids;\n        ProductStatus status;\n        ProductCondition condition;\n    }\n\n    function EcommerceStore() public{\n        productIndex = 0;\n    }\n}\n",
  "sourcePath": "/Users/joseph/Documents/joseph/Etherium/ethereum_voting_dapp/ebay_dapp/contracts/EcommerceStore.sol",
  "compiler": {
    "name": "solc",
    "version": "0.4.18+commit.9cf6e910.Emscripten.clang"
  },
  "schemaVersion": "1.0.1",
  "updatedAt": "2018-01-30T22:08:35.916Z"
}