{
  "contractName": "EcommerceStore",
  "abi": [
    {
      "constant": false,
      "inputs": [
        {
          "name": "id",
          "type": "uint256"
        },
        {
          "name": "name",
          "type": "string"
        },
        {
          "name": "category",
          "type": "string"
        },
        {
          "name": "imageLink",
          "type": "string"
        },
        {
          "name": "descLink",
          "type": "string"
        },
        {
          "name": "auctionStartTime",
          "type": "uint256"
        },
        {
          "name": "auctionEndTime",
          "type": "uint256"
        },
        {
          "name": "startPrice",
          "type": "uint256"
        },
        {
          "name": "condition",
          "type": "uint256"
        }
      ],
      "name": "addProductToStore",
      "outputs": [],
      "payable": false,
      "stateMutability": "nonpayable",
      "type": "function"
    },
    {
      "constant": true,
      "inputs": [
        {
          "name": "productId",
          "type": "uint256"
        }
      ],
      "name": "getProduct",
      "outputs": [
        {
          "name": "",
          "type": "uint256"
        },
        {
          "name": "",
          "type": "string"
        },
        {
          "name": "",
          "type": "string"
        },
        {
          "name": "",
          "type": "string"
        },
        {
          "name": "",
          "type": "string"
        },
        {
          "name": "",
          "type": "uint256"
        },
        {
          "name": "",
          "type": "uint256"
        },
        {
          "name": "",
          "type": "uint256"
        },
        {
          "name": "",
          "type": "uint8"
        },
        {
          "name": "",
          "type": "uint8"
        }
      ],
      "payable": false,
      "stateMutability": "view",
      "type": "function"
    },
    {
      "constant": true,
      "inputs": [],
      "name": "productIndex",
      "outputs": [
        {
          "name": "",
          "type": "uint256"
        }
      ],
      "payable": false,
      "stateMutability": "view",
      "type": "function"
    },
    {
      "inputs": [],
      "payable": false,
      "stateMutability": "nonpayable",
      "type": "constructor"
    }
  ],
  "bytecode": "0x6060604052341561000f57600080fd5b60008081905550610d25806100256000396000f300606060405260043610610057576000357c0100000000000000000000000000000000000000000000000000000000900463ffffffff16806355aa207d1461005c578063b9db15b4146101af578063c897d5a6146103d5575b600080fd5b341561006757600080fd5b6101ad600480803590602001909190803590602001908201803590602001908080601f0160208091040260200160405190810160405280939291908181526020018383808284378201915050505050509190803590602001908201803590602001908080601f0160208091040260200160405190810160405280939291908181526020018383808284378201915050505050509190803590602001908201803590602001908080601f0160208091040260200160405190810160405280939291908181526020018383808284378201915050505050509190803590602001908201803590602001908080601f016020809104026020016040519081016040528093929190818152602001838380828437820191505050505050919080359060200190919080359060200190919080359060200190919080359060200190919050506103fe565b005b34156101ba57600080fd5b6101d060048080359060200190919050506106ce565b604051808b8152602001806020018060200180602001806020018a815260200189815260200188815260200187600281111561020857fe5b60ff16815260200186600181111561021c57fe5b60ff16815260200185810385528e818151815260200191508051906020019080838360005b8381101561025c578082015181840152602081019050610241565b50505050905090810190601f1680156102895780820380516001836020036101000a031916815260200191505b5085810384528d818151815260200191508051906020019080838360005b838110156102c25780820151818401526020810190506102a7565b50505050905090810190601f1680156102ef5780820380516001836020036101000a031916815260200191505b5085810383528c818151815260200191508051906020019080838360005b8381101561032857808201518184015260208101905061030d565b50505050905090810190601f1680156103555780820380516001836020036101000a031916815260200191505b5085810382528b818151815260200191508051906020019080838360005b8381101561038e578082015181840152602081019050610373565b50505050905090810190601f1680156103bb5780820380516001836020036101000a031916815260200191505b509e50505050505050505050505050505060405180910390f35b34156103e057600080fd5b6103e8610b72565b6040518082815260200191505060405180910390f35b610406610b78565b838510151561041457600080fd5b600160008082825401925050819055506101c0604051908101604052808b81526020018a8152602001898152602001888152602001878152602001868152602001858152602001848152602001600073ffffffffffffffffffffffffffffffffffffffff168152602001600081526020016000815260200160008152602001600060028111156104a057fe5b81526020018360018111156104b157fe5b60018111156104bc57fe5b815250905080600160003373ffffffffffffffffffffffffffffffffffffffff1673ffffffffffffffffffffffffffffffffffffffff168152602001908152602001600020600080548152602001908152602001600020600082015181600001556020820151816001019080519060200190610539929190610c2c565b506040820151816002019080519060200190610556929190610c2c565b506060820151816003019080519060200190610573929190610c2c565b506080820151816004019080519060200190610590929190610c2c565b5060a0820151816005015560c0820151816006015560e082015181600701556101008201518160080160006101000a81548173ffffffffffffffffffffffffffffffffffffffff021916908373ffffffffffffffffffffffffffffffffffffffff160217905550610120820151816009015561014082015181600a015561016082015181600b015561018082015181600c0160006101000a81548160ff0219169083600281111561063d57fe5b02179055506101a082015181600c0160016101000a81548160ff0219169083600181111561066757fe5b021790555090505033600260008054815260200190815260200160002060006101000a81548173ffffffffffffffffffffffffffffffffffffffff021916908373ffffffffffffffffffffffffffffffffffffffff16021790555050505050505050505050565b60006106d8610cac565b6106e0610cac565b6106e8610cac565b6106f0610cac565b6000806000806000610700610b78565b60016000600260008f815260200190815260200160002060009054906101000a900473ffffffffffffffffffffffffffffffffffffffff1673ffffffffffffffffffffffffffffffffffffffff1673ffffffffffffffffffffffffffffffffffffffff16815260200190815260200160002060008d81526020019081526020016000206101c0604051908101604052908160008201548152602001600182018054600181600116156101000203166002900480601f0160208091040260200160405190810160405280929190818152602001828054600181600116156101000203166002900480156108335780601f1061080857610100808354040283529160200191610833565b820191906000526020600020905b81548152906001019060200180831161081657829003601f168201915b50505050508152602001600282018054600181600116156101000203166002900480601f0160208091040260200160405190810160405280929190818152602001828054600181600116156101000203166002900480156108d55780601f106108aa576101008083540402835291602001916108d5565b820191906000526020600020905b8154815290600101906020018083116108b857829003601f168201915b50505050508152602001600382018054600181600116156101000203166002900480601f0160208091040260200160405190810160405280929190818152602001828054600181600116156101000203166002900480156109775780601f1061094c57610100808354040283529160200191610977565b820191906000526020600020905b81548152906001019060200180831161095a57829003601f168201915b50505050508152602001600482018054600181600116156101000203166002900480601f016020809104026020016040519081016040528092919081815260200182805460018160011615610100020316600290048015610a195780601f106109ee57610100808354040283529160200191610a19565b820191906000526020600020905b8154815290600101906020018083116109fc57829003601f168201915b505050505081526020016005820154815260200160068201548152602001600782015481526020016008820160009054906101000a900473ffffffffffffffffffffffffffffffffffffffff1673ffffffffffffffffffffffffffffffffffffffff1673ffffffffffffffffffffffffffffffffffffffff16815260200160098201548152602001600a8201548152602001600b8201548152602001600c820160009054906101000a900460ff166002811115610ad257fe5b6002811115610add57fe5b8152602001600c820160019054906101000a900460ff166001811115610aff57fe5b6001811115610b0a57fe5b815250509050806000015181602001518260400151836060015184608001518560a001518660c001518760e00151886101800151896101a001518898508797508696508595509a509a509a509a509a509a509a509a509a509a50509193959799509193959799565b60005481565b6101c06040519081016040528060008152602001610b94610cc0565b8152602001610ba1610cc0565b8152602001610bae610cc0565b8152602001610bbb610cc0565b8152602001600081526020016000815260200160008152602001600073ffffffffffffffffffffffffffffffffffffffff16815260200160008152602001600081526020016000815260200160006002811115610c1457fe5b815260200160006001811115610c2657fe5b81525090565b828054600181600116156101000203166002900490600052602060002090601f016020900481019282601f10610c6d57805160ff1916838001178555610c9b565b82800160010185558215610c9b579182015b82811115610c9a578251825591602001919060010190610c7f565b5b509050610ca89190610cd4565b5090565b602060405190810160405280600081525090565b602060405190810160405280600081525090565b610cf691905b80821115610cf2576000816000905550600101610cda565b5090565b905600a165627a7a72305820730ea6c326c3253927ab3f87f6e7ff78c22078e6ea877299635417bab58e95d70029",
  "source": "pragma solidity ^0.4.13;\n\ncontract EcommerceStore {\n    enum ProductStatus { Open, Sold, UnSold}\n    enum ProductCondition { New, Used}\n\n    uint public productIndex;\n\n    mapping (address => mapping(uint => Product)) stores;\n    mapping (uint => address) productIdInStore;\n\n    struct Product {\n        uint id;\n        string name;\n        string category;\n        string imageLink;\n        string descLink;\n        uint auctionStartTime;\n        uint auctionEndTime;\n        uint startPrice;\n        address highestBidder;\n        uint highestBid;\n        uint secondHighestBid;\n        uint totalBids;\n        ProductStatus status;\n        ProductCondition condition;\n    }\n\n    function EcommerceStore() public{\n        productIndex = 0;\n    }\n\n    function addProductToStore(uint id, string name, string category, string imageLink, string descLink,\n        uint auctionStartTime, uint auctionEndTime, uint startPrice, uint condition) public{\n        require(auctionStartTime < auctionEndTime);\n        productIndex += 1;\n        Product memory product = Product(id, name, category, imageLink, descLink, auctionStartTime, auctionEndTime,\n                                 startPrice, 0, 0, 0, 0, ProductStatus.Open, ProductCondition(condition));\n        stores[msg.sender][productIndex] = product;\n        productIdInStore[productIndex] = msg.sender;\n    }\n\n    function getProduct(uint productId) view public returns (uint, string, string, string, string, uint, uint, uint,\n        ProductStatus, ProductCondition) {\n        Product memory product = stores[productIdInStore[productId]][productId];\n        return (product.id, product.name, product.category, product.imageLink, product.descLink,\n                product.auctionStartTime, product.auctionEndTime, product.startPrice, product.status,\n                product.condition);\n    }\n}\n",
  "sourcePath": "/Users/joseph/Documents/joseph/Etherium/ethereum_voting_dapp/ebay_dapp/contracts/EcommerceStore.sol",
  "compiler": {
    "name": "solc",
    "version": "0.4.18+commit.9cf6e910.Emscripten.clang"
  },
  "schemaVersion": "1.0.1",
  "updatedAt": "2018-01-30T22:43:36.068Z"
}